:020000040800F2
:100000000834002079020008F33D0008B3360008E8
:10001000D93D000895210008C953000800000000E0
:10002000000000000000000000000000054800087B
:10003000A52A000800000000754600086D49000868
:10004000930200089302000893020008930200083C
:10005000930200089302000893020008930200082C
:1000600093020008F12B0008D92C00089302000825
:10007000930200089302000893020008930200080C
:10008000930200082929000893020008930200083F
:10009000930200089302000893020008592E0008FA
:1000A00093020008930200089302000893020008DC
:1000B000D1490008394B0008930200089302000858
:1000C00093020008930200089302000893020008BC
:1000D0009302000893020008895000089302000868
:1000E000930200089302000893020008930200089C
:1000F000930200089302000893020008930200088C
:10010000930200089302000893020008930200087B
:10011000930200089302000893020008930200086B
:10012000930200089302000893020008930200085B
:1001300000F002F800F090F80AA090E8000C824469
:100140008344AAF10107DA4501D100F085F8AFF246
:10015000090EBAE80F0013F0010F18BFFB1A43F0A5
:100160000103184780CC0000A0CC0000103A24BF47
:1001700078C878C1FAD8520724BF30C830C144BF0C
:1001800004680C607047000000230024002500264E
:10019000103A28BF78C1FBD8520728BF30C148BFEA
:1001A0000B6070476E2900F0A083702900F007876C
:1001B000662909F07E84652909F07B84672909F0A6
:1001C0007884612909F0778403681B0A28BF41F00D
:1001D0008001692900F0C280642900F0BF80752980
:1001E00000F0BC806F2900F09486782900F0D38657
:1001F000E92900F02F86E42900F02C86F52900F08B
:100200002986EF2900F09186F82900F0D28603684C
:10021000DB0928BF41F08001632900F0B085732914
:1002200000F0B585E32901F0E780F32901F0EC80C7
:10023000002070471FB500F0CDFE04000020002113
:1002400008F08CFE401C60600020002108F070FE69
:10025000E0601FBD10B510BD01F070F91146FFF749
:10026000E9FF06F06BFD01F097F903B4FFF7F2FF29
:1002700003BC01F09BF9000009488047094800478A
:10028000FEE7FEE7FEE7FEE7FEE7FEE7FEE7FEE746
:10029000FEE7FEE704480549054A064B70470000A3
:1002A0007149000831010008082E002008340020A0
:1002B00008300020083000201CB50C46064B7B445B
:1002C00069460090204600F038FD0446002069464B
:1002D00000F046FD20461CBD9F0A00000FB41CB56F
:1002E000084B06AA7B4469460090059800F025FD5E
:1002F00004460020694600F033FD20461CBC5DF832
:1003000014FB0000790A000070B50C460546012A6E
:1003100005D02878800600D5EA69002302E0012391
:1003200005E05B1C934202D2E05C0028F9D1A86989
:10033000E618C01AA861286A18442862284600F006
:1003400042FA04E0D5E9012114F8010B9047B442C8
:10035000F8D3284600F04DFA70BD00002DE9F041B9
:100360000646002410687529314616A510D000F005
:1003700051FA002802DA404213A507E031688A07E3
:1003800001D512A502E0490704D511A5012401E019
:1003900000F049FA00210A2206F1240709E0B0FB27
:1003A000F2FCB0FBF2F302FB1C003030785418462C
:1003B000491C0028F3D123462A463046BDE8F041C7
:1003C00000F03ABA000000002D0000002B000000F1
:1003D000200000002DE9F05F894604464FF0000A36
:1003E000DFF874B1FB44C0F820A02046E1688847DC
:1003F000002874D0252806D0D4E901219047206A2E
:10040000401C2062F1E700265F462046E1688847ED
:100410002028054607DB312D05D2781910F8200C6D
:1004200008B10643F1E7B00701D526F00406C4F889
:100430001CA00027C4F818A02A2D09D0284605F0D2
:1004400049FE38B304EB8708303DC8F8185019E06E
:1004500059F8041B204604EB87029161E168884744
:10046000012F054618D1E069002820DA26F0200681
:100470001DE0D8F8180000EB800005EB4000303894
:10048000C8F818002046E1688847054605F022FEB6
:100490000028EED1012F0AD02E2D08D12046E16888
:1004A00088477F1C0546022F46F02006C4DBA06962
:1004B000002803DA404246F00106A061F00701D0AF
:1004C00026F010066C2D0BD0682D09D04C2D39D09C
:1004D0006A2D35D0742D35D07A2D33D016E038E022
:1004E000E1682F4620468847B842054609D16C2F5F
:1004F00026D04FF48060E1680643204688470546D1
:1005000004E06C2F1AD04FF4807006430DB3A5F1B0
:100510004100192802D8203546F400664A4629468B
:10052000204626604E46FFF73DFE80B101280BD0E5
:10053000F61D26F0070000F1080956E74020E4E721
:100540008020D8E70020D6E706F104094DE72846C9
:1005500052E7206ABDE8F09FFFC6000030B50546AF
:100560000B462A4613F8014B12F8010B08B1A042C2
:10057000F8D01CB1002802D06D1CF1E7284630BD30
:1005800010B5431C02E010F8011B71B18107FAD1CC
:100590004FF0013202C88C1A8C4314EAC211F9D010
:1005A000C01A0A0603D0C01E10BDC01A10BD0A042E
:1005B00001D0801E10BD0902FCD0401E10BD032AD0
:1005C00040F2308010F0030C00F0158011F8013B70
:1005D000BCF1020F624498BF11F801CB00F8013B57
:1005E00038BF11F8013BA2F1040298BF00F801CB1B
:1005F00038BF00F8013B11F0030300F02580083AF2
:10060000C0F0088051F8043B083A51F804CBA0E848
:100610000810F5E7121D5CBF51F8043B40F8043B9D
:10062000AFF30080D20724BF11F8013B11F801CBD2
:1006300048BF11F8012B24BF00F8013B00F801CBA3
:1006400048BF00F8012B704710B5203AC0F00B806E
:10065000B1E81850203AA0E81850B1E81850A0E8C6
:100660001850BFF4F5AF5FEA027C24BFB1E8185020
:10067000A0E8185044BF18C918C0BDE810405FEA90
:10068000827C24BF51F8043B40F8043B08BF70470C
:10069000D20728BF31F8023B48BF11F8012B28BF11
:1006A00020F8023B48BF00F8012B70474FF00002D2
:1006B0000429C0F0128010F0030C00F01B80CCF174
:1006C000040CBCF1020F18BF00F8012BA8BF20F8E2
:1006D000022BA1EB0C0100F00DB85FEAC17C24BF36
:1006E00000F8012B00F8012B48BF00F8012B7047E0
:1006F0004FF0000200B5134694469646203922BFBB
:10070000A0E80C50A0E80C50B1F12001BFF4F7AF05
:10071000090728BFA0E80C5048BF0CC05DF804EBE7
:10072000890028BF40F8042B08BF704748BF20F855
:10073000022B11F0804F18BF00F8012B704700000A
:100740004FF0013C50F8042B51F8043B9A4221D160
:10075000A2EB0C03934313EACC1317D150F8042BEC
:1007600051F8043B9A4215D1A2EB0C03934313EAD0
:10077000CC130BD150F8042B51F8043B9A4209D109
:10078000A2EB0C03934313EACC13DBD04FF0000031
:10079000704700BFD01A01BAB1FA81F101F0180117
:1007A00022FA01F0CB40C1F12001DBB2C0B2C01A85
:1007B0002CFA01F3D11A914311EAC311E6D1704723
:1007C00070477047704770B5044685690068C10678
:1007D00001D5302600E02026C00707D070BDD4E93F
:1007E000012130469047206A401C20626D1EF6D5DC
:1007F00070BD70B5044685690078C00707D170BD2B
:10080000D4E9012120209047206A401C20626D1EFF
:10081000F6D570BD09684A0501D540B27047C905D3
:10082000FCD500B2704709684A0501D5C0B27047CF
:10083000C905FCD580B270472DE9F0470D469946B1
:100840009246044600F124080168880604D5E06950
:1008500021F01001216000E00120A84201DD471BCA
:1008600000E00027A1697A1902EB0900081AA061CB
:100870002078C00602D42046FFF7A5FF002608E036
:10088000D4E901211AF806009047206A401C761C22
:1008900020624E45F4DB2078C0060AD52046FFF7DB
:1008A00092FF06E0D4E9012130209047206A401CE5
:1008B0002062381EA7F10107F4DC07E0D4E901212A
:1008C00018F805009047206A401C2062281EA5F1F8
:1008D0000105F3DC2046FFF78CFF2078000602D5E7
:1008E0000220BDE8F0870120FBE711680268006A7A
:1008F000530501D508700AE0D30501D5088006E04C
:10090000130603D5C217C1E9000200E00860012008
:10091000704770472DE9FF4F0C461E464FF0FF37DA
:100920008BB0D2E90001DDF860800A908A46C1F3FD
:100930000A5505B93D46002108464FF00000BAF1BE
:10094000000F00F4400005DA00EB80004FF4400196
:1009500001EA50004FEA9059B9F1010F00DDB946A4
:100960000A9850EA4A000ED044F61050A5F2FF351E
:1009700045432F14B8F1000F1ED07542291E1EDD0D
:10098000C9F100021CE0B8F1010F4FF0000001D0E6
:10099000302103E0F24305E02154401CB042FBDB70
:1009A00030460022002121540B99C1F80880C1E98A
:1009B00000200FB0BDE8F08FBD1B6D1CDEE74A467E
:1009C00000DA694206A800F023FD06AB93E80700B1
:1009D00003AB83E8070050460A9900F0EEFD8DE86E
:1009E0000700A0F500501F3800900398002D0ADD85
:1009F00042F21F014A460844002303A903906846B7
:100A000001F057F809E0A0F500504A461F380023CE
:100A100003A90390684601F061F88DE8070000041F
:100A2000000C03D04FF0FF30410800E01046B8F151
:100A3000000F03D00022009215461EE0751E05D45B
:100A400000F0CCFA303262556D1EF9D5B346012262
:100A5000084302D000227F1C04E02078302801D116
:100A600000227F1E002A099784D01DE0112D07DA8D
:100A700000F0B4FA303262556D1C50EA0102F5D133
:100A8000084302D00098C8B10EE00021681E05E0BE
:100A9000235C625C63542254401E491C8142F7DB94
:100AA000AB46A81B401E0990002004F80B000B98D1
:100AB000099AC0F80880C0E9002B7AE711264FF0A8
:100AC000000857E72DE9F04F88460446D21D22F072
:100AD000070191B0D1E90001CDE90A0105F0E6FA7C
:100AE00002460B98C00F01D02D2007E02068810737
:100AF00001D52B2002E0202101EAC000032A099041
:100B000001D0072A05DB03464146204600F02AFCB7
:100B10000BE12078800601D5E06900E00620B8F1FD
:100B2000650F814606D0B8F1660F18D0B8F1670F8F
:100B300070D131E00020B9F1110F009001DB1123D9
:100B400001E009F101030AAA01A90CA8FFF7E2FEDE
:100B5000DDE90C70002609F10105834647E001201C
:100B60004B4600904FF000470AAA01A90CA8FFF7D6
:100B7000D1FEDDE90DB00C995D46002610B909F1F2
:100B800001000D18B9EB050003D4C0F1FF3609F1DF
:100B90000105A5EB09002BE0B9F1010F01DA4FF0D7
:100BA00001090020B9F1110F0090484601DD112321
:100BB00000E003460AAA01A90CA8FFF7ABFEDDE995
:100BC0000C704D4600268346207800070AD4AB45BA
:100BD00000DA5D4601A8012D04DD411911F8011C60
:100BE000302907D04F4502DA17F1040F04DA01204B
:100BF00082460FE06D1EEEE7002F02DCED1B3E4447
:100C000003E0781CA84200DD7D1CB81B00F1010A3E
:100C10004FF000472078000703D4AA4501DB4FF0CE
:100C2000FF3A0021B7F1004F0DF143088DF8431052
:100C300024D002202B23002F01DA7F422D230A210A
:100C4000021EA0F1010000DC5FB197FBF1FC97FBF5
:100C5000F1F201FB1C7C17460CF1300C08F801CDB9
:100C6000EEE7A8F1010003702188090501D54521AF
:100C700000E06521A0F1010800F8011C09980FA906
:100C8000A1EB0807FF1D00B10120411901EBEA703B
:100C9000A1693844081A401EA0612078C00602D419
:100CA0002046FFF790FD099828B1D4E9012190472B
:100CB000206A401C20622078C00622D52046FFF71B
:100CC00082FD1EE0002E04DBB34502DD01A8805D3D
:100CD00000E03020D4E901219047206A401C2062C6
:100CE000761CAAF101005FEA000A0AD100F072F94D
:100CF000C0680168405CD4E901219047206A401C2B
:100D00002062281EA5F10105DCDC07E0D4E9012101
:100D100018F8010B9047206A401C2062381EA7F18A
:100D20000107F3DC2046FFF764FD032011B041E624
:100D300001694A1C02610878704700B58FB0CDE99F
:100D400001310021059105497944CDE9031011468F
:100D50006846FFF73FFB0FB000BD0000E5FFFFFF57
:100D60000A6802F8010B0A60704710B5436913B1B5
:100D7000AFF3008001E0FFF7C7FA012010BD127841
:100D800000F124010A7000224A700122EDE7116887
:100D90004FF0FF32E9E700002DE9FF5F15468A4674
:100DA0000446DFF8AC80F8440027D8E900103E463E
:100DB000CDE9001010E03AF816106A4602A800F0DB
:100DC00099FB411C07D02178890603D5E2693918BF
:100DD00091420DD80744761C2078800602D5E06940
:100DE000B84205DDAE42E6DB3AF816000028E2D153
:100DF000A069C01BA0612046FFF7E5FCD8E9001000
:100E0000CDE90010002017E03AF818106A4602A851
:100E100000F070FBB0F1FF3F81460BD000250DF1D3
:100E2000080B05E0D4E901211BF8050090476D1C73
:100E30004D45F7D308F10100B0428046E4DB206A5B
:100E4000384420622046FFF7D4FCBDE8FF9F000035
:100E50004EBD00002DE9F0418046D21D22F0070270
:100E60000025D2E90002F52915A614D0011E72F161
:100E7000000106DA0023D0EB030063EB020211A6A7
:100E800008E0D8F800108B0701D50FA602E049074B
:100E900001D50EA601251146002408F1240704E01F
:100EA00000F09CF830323A55641C50EA0102F7D148
:100EB0002B46324621464046BDE8F041FFF7BCBC18
:100EC000000000002D0000002B00000020000000AA
:100ED00030B4002100F1240408E002F00705D20834
:100EE000303542EA4372DB086554491C52EA030577
:100EF000F3D10468002310A2250707D5A40600D467
:100F000021B1C46901230DA2641EC46130BCFFF786
:100F100093BC10B5044621461068FFF784FC0246D6
:100F20002046BDE810400023D2E7D21D22F0070181
:100F3000D1E90023CCE700000000000030000000F1
:100F4000F0B40D460188090502D5214C7C4402E02D
:100F50001F4C7C440E34002100F1240608E002F00E
:100F60000F071209E75D42EA03721B097754491C17
:100F700052EA0307F3D102780023120704D5702D3B
:100F800006D009B1022311342246F0BCFFF754BC4D
:100F900001231034F8E770B504460D462146106869
:100FA000FFF741FC024629462046BDE87040002379
:100FB000C6E7D21D22F00703D3E90023C0E7036888
:100FC000126843F0200303600823C3610023B7E7DE
:100FD000B0BB000000487047C82D002030B5B0F10C
:100FE0000A024FEA900E71F100034EEA817EB0EBE7
:100FF0000E0061EB91014FEA101E4EEA017E10EBEC
:101000000E0041EB11114FEA102E4EEA016E10EB6B
:101010000E0041EB11214FEA104E4EEA014E10EB4B
:101020000E0041EB1141401841F100014FEAD000A0
:1010300040EA41704FEAD10110EB80054FEA81048C
:1010400044EA907444EB01046D1944EB0404521B10
:10105000A3414FF0000348BF0A3200D530BD401C09
:1010600041F1000130BD00002DE9F04F04460D466E
:10107000D21D22F0070089B0D0E9009748463946D2
:1010800005F014F80246F80F01D02D2307E0206880
:10109000810701D52B2302E0202101EAC0038DF84E
:1010A00020300BB1012000E00020032A824601D04D
:1010B000072A04DB2946204600F054F93FE1207856
:1010C000800601D40D2500E0E569C7F30A560D2D11
:1010D00049DA00214FEA175B08464FF00000002F65
:1010E00000F4400007DA00EB80004FF4400100EB11
:1010F000D07001EA60008115012901DD4FF0FF3158
:1011000000224FEA850CBCF1180F06D31346ACF150
:1011100018004FF08052C24003E04FF4801323FACE
:101120000CF30CF10C0CBCF1200F04D3ACF1200C2F
:1011300009FA0CF001E007FA0CF000294FF0004822
:1011400001DD18B90FE00ED140450CD319EB0209AF
:101150005F4121B9404502D19F4329EA0209BBEB17
:10116000175F00D0761C2088000502D57B487844A4
:1011700002E07A487844193808AA302302F80A3085
:10118000037C0AF10101002E0AF1020A53546A4657
:1011900002DC4FF0300101E04FF031014FF0010867
:1011A0008DF8001002D0A6F2FF3603E059EA47019D
:1011B00000D06B4E002D02DC2178090704D54FF0DA
:1011C00002082E218DF80110C44600210BE0C7F360
:1011D00003433F01C35C491C6D1E02F8083005291A
:1011E00008F1010801DA002DF1DC00210CE000EB30
:1011F0001973491C1B786D1E082902F808304FEA44
:10120000091908F1010801DA002DF0DC21688B06CC
:1012100002D516E0A8F10108E04505DD02EB080360
:1012200013F8013C302BF5D0B8F1000F09DD02EBCB
:10123000080313F8013C2E2B03D1090701D4A8F1B0
:101240000108002D05DD3E2102F808106D1E08F191
:101250000108407C002E02F8080008F1010804DAB9
:101260002D20764202F8080002E02B2002F8080048
:101270000A214FF47A70864208F101080BDB96FBD5
:10128000F0F3303302F8083096FBF0F308F1010870
:1012900000FB136601E0642E0CDB642096FBF0F388
:1012A000303302F8083096FBF0F308F1010800FB38
:1012B000136601E00A2E06DB96FBF1F0303002F8EF
:1012C000080008F1010896FBF1F001FB10603030D6
:1012D00002F80800A16908F1010808EB050202EB19
:1012E0000A00081AA0612078C00602D42046FFF741
:1012F0006AFA216A08AE01EB0A00206204E0D4E930
:10130000012116F8010B9047BAF1010AF7D22078B3
:10131000C00602D52046FFF756FA6E4609E016F8D9
:10132000010B3E280FD0D4E901219047206A401CD0
:101330002062B8F10108F2D22046FFF75AFA09B04C
:101340000320BDE8F08F206A2844206203E0D4E93E
:101350000121302090476D1EEBD3F8E7C9B900009A
:1013600002FCFFFF2DE9F0411F46044603260168F9
:10137000072A01F4006004DB08B116A505E016A5F4
:1013800003E008B115A500E015A521F010002060CC
:10139000A069C01EA0610FB1401EA0612046FFF7EA
:1013A00012FA4FB1D4E9012138469047206A401C17
:1013B0002062C01C206206E0206AFAE7D4E901211D
:1013C00015F8010B9047761EF8D22046FFF711FA68
:1013D000BDE8F0814E414E006E616E00494E460000
:1013E000696E660010B5436913B1AFF3008001E088
:1013F000FFF7D2FC012010BD128800F12401828485
:101400000022C2840122EDE711684FF0FF32E9E7C4
:101410002DE9F047814616468AB0354878440DC814
:101420008DE80D0032487844801C03AC0DC884E878
:101430000D0041F69B300844372190FBF1F290FB00
:10144000F1F5A5F1800501FB12041B3C02D56442B5
:10145000012000E00020DFF898A080460027FA4431
:10146000AAF1BE0A0EE0E0070AD03246684607EB52
:10147000470101230AEB810100F030FB8DE80700F2
:1014800064107F1C002CEED1194F7F44AE3F19E051
:10149000E80715D007EB04100DF1180A90E80E00CC
:1014A0008AE80E00C068F04201D1981908903246CF
:1014B000012306A903A800F011FB03AB83E8070092
:1014C0006D10641C002DE3D14FF0010332466946D4
:1014D000B8F1000F03A802D000F0EBFA01E000F031
:1014E000FDFAC9E90001C9F808200AB0BDE8F08793
:1014F000ACB7000070B516460C46054600F044F83F
:10150000036893F80101012806D0FF2C0FD8185D5D
:1015100068B101202C7070BDD3F807013246214616
:1015200003F2071303442846BDE8704018474FF004
:10153000FF3070BD00487047A82D00207546FFF7AA
:10154000F9FFAE4605006946534620F00700854680
:1015500018B020B5FEF79EFEBDE820404FF0000613
:101560004FF000074FF000084FF0000B21F007018B
:10157000AC46ACE8C009ACE8C009ACE8C009ACE8CE
:10158000C0098D467047000010B5FFF723FD001D10
:1015900010BD00BFC979000010B50446AFF300804C
:1015A0002046BDE81040FEF760BE0000014918204B
:1015B000ABBEFEE72600020070475FEA400C08BFA2
:1015C00091F0000F4FEA8C234FEAC12243EA5151B8
:1015D0004FEA1C5018BF00F5F0404FEA300018BF2A
:1015E00041F000415FEA6C5C00F02980BCF1FF3FF4
:1015F00008BF40F080407047130C06BF12044FF044
:10160000100C4FF0000C130E04BF12020CF1080C6A
:10161000130F04BF12010CF1040C930F04BF9200CE
:101620000CF1020CD30F04BF52000CF1010C114657
:101630004FF00002A0F11F00A0EB0C00704711F06A
:10164000004F08BF704731F000413FF4D5AF0B0C9D
:1016500006BF09044FF0100C4FF0000C0B0E04BF36
:1016600009020CF1080C0B0F04BF09010CF1040C6A
:101670008B0F04BF89000CF1020CCB0F04BF490093
:101680000CF1010CCCF12003A0EB0C0022FA03F3C7
:1016900002FA0CF241EA030100F10100704720F068
:1016A0007F4C80EA030023F07F47ACEB070303F590
:1016B0007C5300F0004003F1FF032DE980494FEA1D
:1016C000154B09B44FEA144325EA0B4E24EA0348AC
:1016D0000FF2042606EB132749083E785FEA320230
:1016E00003FB0667C7F5000707FB06F64FEA54370A
:1016F0004FEAD64606F1020607FB066CCCF1005C09
:101700004FEA1C472CEA074C07FB06F40CFB06F5D6
:1017100004EB15464FEA961634BF00204FF0004008
:101720004FEAD13706FB07FC4FEA1C4C0CFB0BF7CA
:10173000D21B03FB0CF761EB07010CFB0EF7B0EBC0
:10174000074072EB17420CFB08F734BFA2EB0742CD
:10175000B2EB074261EB17414FEA0C444FEA9107A5
:1017600006FB07FC4FEA1C4C0CFB0BF7B0EBC74029
:1017700072EB573203FB0CF734BFA2EBC742B2EB5C
:10178000C74261EB57310CFB0EF7B0EBC70072EBB1
:1017900057720CFB08F734BFA2EBC702B2EBC702CB
:1017A00061EB5771039F4FEA816141EA921104EBAB
:1017B000CC044FEAD1374FEA826206FB07FC42EACB
:1017C00090124FEA80604FEA1C4C0CFB0BF7D21BC7
:1017D00003FB0CF761EB07010CFB0EF7B0EB0740C6
:1017E00072EB17420CFB08F734BFA2EB0742B2EBD7
:1017F000074261EB17414FEA8C554FEA910704EB22
:101800009C2406FB07FC4FEA1C4C0CFB0BF7B0EBCF
:10181000C74072EB573203FB0CF734BFA2EBC74251
:10182000B2EBC74261EB57310CFB0EF7B0EBC700D0
:1018300072EB57720CFB08F734BFA2EBC702B2EB96
:10184000C70261EB577115EB4C254FEA816141EA04
:1018500092114FEA82624FEAD13742EA901206FBB8
:1018600007FC44F100044FEA80604FEA1C4C0CFB7B
:101870000BF7D21B03FB0CF761EB07010CFB0EF718
:10188000B0EB074072EB17420CFB08F734BFA2EB3A
:101890000742B2EB074261EB174115EB1C154FEA0B
:1018A000813141EA92414FEA823242EA90424FEA64
:1018B00080304FEA0C7644F1000448EA03434EEAD4
:1018C0000B484FF0000EB2EB080C71EB030724BF7E
:1018D000624639464EEB0E0E4FF0000B0018524197
:1018E00049414BEB0B0BB2EB080C71EB03077BF19F
:1018F000000B24BF624639464EEB0E0E4FF0000B34
:101900000018524149414BEB0B0BB2EB080C71EB49
:1019100003077BF1000B24BF624639464EEB0E0EE7
:1019200051EA020718BF46F0010616EB0E7655F194
:10193000000254F1000103D5BDE88901BDE800882B
:10194000BDE88901BDE80048B619524141EB0101EB
:10195000A3F10103704780807F7E7D7C7B7A79785C
:10196000777676757473727171706F6E6E6D6C6C64
:101970006B6A6A6968686766666564646363626106
:101980006160605F5F5E5E5D5D5C5C5B5B5A5A5987
:1019900059585857575656555555545453535252F3
:1019A0005251515050504F4F4F4E4E4D4D4D4C4C4B
:1019B0004C4B4B4B4A4A4A49494948484847474794
:1019C00047464646454545444444444343434342D1
:1019D000424242414141002B9C4630D477002BD0FB
:1019E0001CB54FEA370703B44FF010004FF0100159
:1019F000BAF1000F06D0BCF1000FDCBF40F00800C8
:101A000040F008014FF000000FBCBDE810400BF1A2
:101A1000010BBBF1010F08BF5FEA170722BF12F1EC
:101A2000010211F101014FF0004143F1000300F008
:101A3000004043EA00007047F9D35708D0E746EA70
:101A4000064613F1400F4FEA16461FDD13F1200F33
:101A5000DFBF16430A46002120335B42BED0C3F1EC
:101A6000200746EA064602FA07F74FEA164646EA14
:101A70000706C3F1200722FA03F201FA07F721FA59
:101A800003F14FF0000342EA0702A7E746EA020625
:101A900046EA06464FEA164646EA0106BCBF46EA53
:101AA0000646360C4FF000034FF000024FF00001E5
:101AB00094E72DE9804C9A46934670B491E838003B
:101AC00007C831EA400C48BF34EA430C03D5FFF79E
:101AD000E6FDFFF780FFF0BCBDE8008C2DE9804CEF
:101AE0009A46934670B491E8380007C810F0804FCA
:101AF00008BF13F0804F03D100F005F8FFF76BFF2C
:101B0000F0BCBDE8008C20F07F4780EA030023F0A2
:101B10007F4C07EB0C03A3F57C5300F00040A3F1CE
:101B2000FE0392F0000F00F0B38095F0000F00F07C
:101B300077802DE901494FEA11404FEA144621EA26
:101B4000004800FB06FC24EA064708FB06F607FBF4
:101B500008F800FB07F718EB06484CEB164C4FEA69
:101B6000124B18EB07484FEA15464CEB174022EA98
:101B70000B4E0BFB06FC25EA06470EFB06F607FBA1
:101B80000EFE0BFB07F71EEB064E4CEB164C4FF010
:101B900000061EEB074E4CEB174B18EB0B0840F101
:101BA000000018EB0E0B58EB000840F100008F1AF4
:101BB0004FF000013CBFC943661B14BFB5EB040CDA
:101BC00000213CBFC943F61B4FEA17444EEA8E0E74
:101BD00027EA04454FEA1C4704FB07622CEA074C3E
:101BE00005FB07F70CFB05F604FB0CFC16EB0746A0
:101BF00042EB174216EB0C4642EB1C421BEB06066F
:101C000058EB0202414146EA9E0601D5BDE8018932
:101C1000B619524141EB0101A3F10103BDE801896D
:101C20004FEA14454FEA114724EA054621EA074CDA
:101C300005FB07F406FB07F70CFB06F105FB0CFCA4
:101C400011EB074144EB17444FEA124711EB0C41EB
:101C500044EB1C4422EA074C05FB07F206FB07F79E
:101C60000CFB06F605FB0CFC16EB074642EB174295
:101C700016EB0C4642EB1C456A1854F1000148BFB4
:101C80007047B619524141EB0101A3F101037047BE
:101C900095F0000F37D04FEA11424FEA144721EA7E
:101CA000024624EA074C02FB07F106FB07F70CFB90
:101CB00006F402FB0CFC14EB074441EB17414FEA1E
:101CC000154714EB0C4441EB1C4125EA074C02FB81
:101CD00007F506FB07F70CFB06F602FB0CFC16EB00
:101CE000074645EB174516EB0C4645EB1C4212190F
:101CF00051F1000148BF7047B619524141EB010153
:101D0000A3F1010370474FEA14454FEA114724EA53
:101D1000054621EA074C05FB07F106FB07F70CFB1C
:101D200006F24FF0000605FB0CFC12EB074241EBFC
:101D3000174112EB0C4251EB1C4148BF70479218FF
:101D400041EB0101A3F10103704721B1826842F028
:101D50000102826003E0826822F001028260704723
:101D600010B504461248844208D10121401502F002
:101D7000CFFC0021601502F0CBFC17E00D48844237
:101D800008D10121001502F0C3FC0021201502F04A
:101D9000BFFC0BE00848844208D10121C80302F0CF
:101DA000B7FC00214FF4004002F0B2FC10BD00006F
:101DB0000024014000280140003C01400146002071
:101DC0008A6802F004020AB1012000E00020704796
:101DD0000146C86C80B270470246002013680B4071
:101DE0000BB1012000E000207047014600208A6806
:101DF00002F008020AB1012000E000207047000054
:101E000030B502460020002350680F4C20400D7969
:101E10000C6844EA05242043506090680B4C204035
:101E2000D1E902542C434D7944EA450420439060A3
:101E3000D06A20F470000C7C641EE4B2234340EAB4
:101E40000350D06230BD0000FFFEF0FFFDF7F1FF50
:101E5000F0B504460D4600200021092D11DDE06893
:101E6000A5F10A0606EB4607072606FA07F188439E
:101E7000A5F10A0606EB460603FA06F10843E06000
:101E80000CE0206905EB4507072606FA07F18843B1
:101E900005EB450603FA06F108432061072A0FDA2D
:101EA000606B561E06EB86071F2606FA07F188436D
:101EB000561E06EB860605FA06F10843606322E02B
:101EC0000D2A0FDA206BD61F06EB86071F2606FAAF
:101ED00007F18843D61F06EB860605FA06F108438C
:101EE000206310E0E06AA2F10D0606EB86071F26CC
:101EF00006FA07F18843A2F10D0606EB860605FAFD
:101F000006F10843E062F0BD816841F0080181609C
:101F1000704721B1826842F4A002826003E08268C7
:101F200022F4A00282607047816841F00401816060
:101F30007047000000B587B001214FF4017002F036
:101F4000D7FB4FF4004002F097FB4020ADF80400AF
:101F500000208DF8070001A9174801F093FA1748EF
:101F6000FFF7FEFE002002908DF80C008DF80D00AA
:101F70004FF4602004900020059001208DF8180097
:101F800002A90E48FFF73CFF01210C48FFF7DDFED8
:101F90000A48FFF7B9FF00BF0848FFF726FF0028EF
:101FA000FAD10648FFF7C0FF00BF0448FFF706FF5D
:101FB0000028FAD107B000BD00080140002401400C
:101FC00010B5A2B080212D48FEF770FB2CA22EA1E7
:101FD0002A48FEF783F92948FEF7D2FA3449086007
:101FE00080213448FEF762FB33A325A235A1314896
:101FF000FEF774F92F48FEF7C3FA344908608021D0
:1020000002A8FEF775FB2CA01DA31DA230A1009015
:1020100002A8FEF763F902A8FEF7B2FA04462020F0
:1020200034A33D4A2146009002A805F0AFF93A4892
:10203000FEF7A6FA3949086080213948FEF736FBD9
:102040001DA238A13648FEF749F940F25B703F49BE
:1020500008600846324902683DA005F015F90749B5
:1020600040A005F011F9134942A005F00DF92A49E5
:1020700044A005F009F922B010BD0000C8250020D9
:10208000414243444546470025737C73656375723E
:10209000656D6F64653D332C7369676E6D6574683B
:1020A0006F643D686D6163736861317C000000009E
:1020B0003400002048260020613176447A476E3291
:1020C0005158450025732625730000003800002074
:1020D000636C69656E7449642573646576696365CC
:1020E0004E616D65257370726F647563744B6579AD
:1020F00025730000326430386635396234666166B3
:102100006538313364636634353930343139626669
:102110006630306100000000C82600203C0000202E
:102120004827002025732E696F742D61732D6D7102
:1021300074742E636E2D7368616E676861692E61B9
:102140006C6979756E63732E636F6D0040000020BB
:10215000B7FE20CEF120C6F7A3BA25733A25640D49
:102160000A000000BFCDBBA7B6CB4944A3BA257374
:102170000D0A0000D3C320BBA720C3FBA3BA25735D
:102180000D0A0000C3DC20202020C2EBA3BA257377
:102190000D0A00007047000070B505460C46224647
:1021A000294615480068801CFEF709FA2046E11709
:1021B00004EB1161090A104A12681170E11704EB6F
:1021C00011610912A4EB01210B4A12685170002120
:1021D00009480268A01C11540748006800F5967071
:1021E000054908600846006804490968884202D128
:1021F00003480149086070BD28000020300000201D
:10220000681C002010B58F48007801286CD18E48DA
:1022100000688E49096888422DD08D48007850BBEF
:1022200089480068807810280CD08748006880783A
:10223000822803D187480078012803D08648007897
:10224000012818D180480068817884A005F01CF826
:102250007D48006805F046F87B48006800F59670F8
:10226000794908600846006880490968884202D1B7
:102270007F48754908607F4800687F49096888423F
:102280007DD07EA005F000F87A480068807820288C
:1022900041D1784800684079062834D2DFE800F060
:1022A000030E151C232C78A004F0EEFF01206949D1
:1022B0000870002179A001F043FD2BE084A004F018
:1022C000E3FF00205F49087024E08CA004F0DCFFED
:1022D00000205C4908701DE094A004F0D5FF0020A8
:1022E0005849087016E000E07AE09AA004F0CCFFAC
:1022F0000020544908700DE0A1A004F0C5FF0020A3
:102300005049087006E0A6A004F0BEFF00204D4929
:10231000087000BF4AE057480068807890281ED1B6
:1023200054480068807910B1012810D100E000BF46
:10233000A4A004F0A9FF01204749087002F0C0FBE7
:102340000121880702F09FFC04F0D0FB06E0A0A06A
:1023500004F09AFF00203B49087000BF26E0454882
:1023600000688078D02815D19FA004F08DFFA24886
:102370000078012804D100209F49087016E024E06D
:102380009D480078012811DD00209B49087002F06B
:1023900097FB0BE0374800688078302806D197A07B
:1023A00004F072FF3348006801F0C2FB3148006856
:1023B00000F596702F49086008460068944909683E
:1023C000884202D193482B4908609348006893499A
:1023D0000968884201D004F073FD00F017FB30E07B
:1023E0008FA004F051FF4FF4E13003F0FFF800211B
:1023F000904802F048FC00214FF0804002F043FC7E
:1024000000208D4908608D4908604FF480618C4838
:10241000FEF74CF903F04AF998B98AA004F034FFAA
:102420004FF4E13003F07AF80120064908700020EB
:10243000824908604FF480618148FEF737F901F066
:102440001DFA10BD51000020200000201C000020BB
:102450000C0000205200002053000020B7A2CBCD7A
:10246000CAFDBEDD3A307825780D0A002400002030
:10247000081300201400002010000020BDD3CAD58E
:10248000B5BDCAFDBEDD3A00434F4E4E454354B183
:10249000A8CEC4B3C9B9A60D0A0000002F73797382
:1024A0002F61316143516F73566372782F414243FC
:1024B000442F7468696E672F736572766963652F40
:1024C00070726F70657274792F736574000000000C
:1024D000C1ACBDD3D2D1BEDCBEF8A3ACB2BBD6A7D3
:1024E000B3D6B5C4D0ADD2E9B0E6B1BEA3ACD7BCCB
:1024F000B1B8D6D8C6F40D0A00000000C1ACBDD3F7
:10250000D2D1BEDCBEF8A3ACB2BBBACFB8F1B5C471
:10251000BFCDBBA7B6CBB1EACAB6B7FBA3ACD7BC9D
:10252000B1B8D6D8C6F40D0A00000000C1ACBDD3C6
:10253000D2D1BEDCBEF8A3ACB7FECEF1B6CBB2BBF7
:10254000BFC9D3C3A3ACD7BCB1B8D6D8C6F40D0AA3
:1025500000000000C1ACBDD3D2D1BEDCBEF8A3AC3C
:10256000CEDED0A7B5C4D3C3BBA7C3FBBBF2C3DCCD
:10257000C2EBA3ACD7BCB1B8D6D8C6F40D0A0000E4
:10258000C1ACBDD3D2D1BEDCBEF8A3ACCEB4CADAE6
:10259000C8A8A3ACD7BCB1B8D6D8C6F40D0A000001
:1025A000C1ACBDD3D2D1BEDCBEF8A3ACCEB4D6AAEA
:1025B000D7B4CCACA3ACD7BCB1B8D6D8C6F40D0A4E
:1025C00000000000B6A9D4C4B3C9B9A60D0A000022
:1025D000B6A9D4C4CAA7B0DCA3ACD7BCB1B8D6D80E
:1025E000C6F40D0A0000000050494E47B1A8CEC401
:1025F000BBD8B8B40D0A000050000020B7FECEF1E1
:10260000C6F7B5C8BCB630CDC6CBCD0D0A000000AC
:1026100018000020A80900202C000020280000201D
:10262000D7BCB1B8C1ACBDD3B7FECEF1C6F70D0A69
:1026300000000000000400408C0000200800002082
:10264000A8010020C1ACBDD3B7FECEF1C6F7B3C917
:10265000B9A60D0A0000000010B501F001FD2848E0
:10266000007828490978884205D02548007825490E
:10267000087001F001FC2248007806283DD2DFE80E
:1026800000F003272F343C391F48007828B11FA2DF
:102690003021782001F07AFF04E01DA2302178205B
:1026A00001F074FF1B48007840B11B48007828B146
:1026B0001AA22021622001F069FF04E019A2202162
:1026C000622001F063FF04F0CDFB04F0DDF814E0BC
:1026D00004F07EFA16A23021002001F07AFF0CE00F
:1026E00003F000FD04F026F807E004F005FD04F017
:1026F0009FF802E003F0FAFD00BF00BF10BD00002C
:102700006C0000206D0000207D00002041000000D2
:10271000770000007C000020530000205749464904
:102720000000000020202020202020202020200049
:10273000B7B5BBD80000000010B5002415480068EC
:1027400020F07060134908600846006840F000609F
:10275000086004E0601CC4B2012000F027FA0E48B3
:10276000006808B1642CF5DB642C01DB012010BD8E
:10277000002404E0601CC4B2012000F017FA0648EF
:10278000006808B9642CF5DB642C01DB0120EEE75E
:102790000020ECE7000C01401881214208B501211E
:1027A000082001F0A5FF4020ADF8000010208DF8B2
:1027B000030003208DF802006946064800F062FE1F
:1027C0004021044800F03DFF00F08EF8FFF7B4FF11
:1027D00008BD0000000C014010B5002404E0601C9E
:1027E000C4B2012000F0E2F90D48006808B1642C81
:1027F000F5DB002404E0601CC4B2012000F0D6F92F
:102800000748006808B9642CF5DB282000F0CEF9F1
:102810000348006808B1012010BD0020FCE700005B
:102820001881214270B50024002506E06006040EE0
:10283000FFF7D2FF0443681CC5B2082DF6DB204623
:1028400070BD00002DE9FC4781468A4600F04CF837
:10285000FFF772FF00283FD1002405E0FFF7E2FFF9
:102860000DF80400601CC4B2052CF7DB9DF80000D5
:102870009DF8011008449DF8021008449DF80310CB
:1028800008449DF80410884229D19DF801109DF854
:10289000002002EB820201EB420006F02EFD07460B
:1028A0000022104B06F0A2FB054606F06DFBCAF8AD
:1028B00000009DF8021001EB810201EB420006F0DE
:1028C0001CFD05460022074B06F090FB074606F06C
:1028D0005BFBC9F8000002E00120BDE8FC87002096
:1028E000FBE700000000244010B50C48006820F011
:1028F00070600A4908600846006840F0407008604F
:10290000002007490860142000F0D4F80120054990
:10291000C1F898011E2000F049F910BD000C0140DB
:10292000988121420080214210B54FF0007000F0E4
:102930002FF850B14FF0007000F00CF80021034860
:1029400000F016F800200249087010BD8000024017
:102950000C00002000F0805111B10349086001E033
:102960000249486070470000040402400000024031
:1029700021B1026842F00102026004E002684FF6F1
:10298000FE731A40026070470146486880B2704783
:1029900001460020002201F0805313B1054B1A6854
:1029A00001E0054B1A6802EA01030BB1012000E0C7
:1029B0000020704700040240000002401AB1036882
:1029C0000B43036002E003688B430360704710B55C
:1029D0000022026847F6F0739A430C6A8B6823431F
:1029E0000C6923434C6923438C692343CC692343FB
:1029F0004C6A23438C6A23431A430260CB684360CA
:102A00000B6883604B68C36010BD0000F0B5C3B0B5
:102A100013480068642821D3002011490860114838
:102A2000006806F093FD04460D460F48006806F066
:102A30008DFD06460D48007832460B460C49CDE91F
:102A40000045029003A8FDF749FC03A8FDF798FD97
:102A50000446224603A907A001F0FCF843B0F0BDEC
:102A60008C00002068000020640000207B00002013
:102A7000E4CB00082F7379732F61316143516F7379
:102A8000566372782F414243442F7468696E672FF2
:102A90006576656E742F70726F70657274792F70C1
:102AA0006F737400704710B56FF0040001F04AFFB7
:102AB00010BD000010B50146B1F5E16F22D201EB67
:102AC000C1034FF47A7463434FF0E0246361002341
:102AD000A36123461B6943F00103236100BF4FF04C
:102AE000E023186900F001031BB100F48033002BD0
:102AF000F5D04FF0E0231B6923F001034FF0E024F1
:102B000023614FE000221FE0274B4FF0E024636178
:102B10000023A36123461B6943F00103236100BF27
:102B20004FF0E023186900F001031BB100F480337B
:102B3000002BF5D04FF0E0231B6923F001034FF089
:102B4000E0242361531CDAB24FF4E163B1FBF3F3E9
:102B50009342D9D84FF4E163B1FBF3F403FB1413B0
:102B600003EBC3034FF47A7463434FF0E0246361D3
:102B70000023A36123461B6943F00103236100BFC7
:102B80004FF0E023186900F001031BB100F480331B
:102B9000002BF5D04FF0E0231B6923F001034FF029
:102BA000E024236110BD00004031F700014601EB35
:102BB000C1024FF0E0235A6100229A611A4612695D
:102BC00042F001021A6100BF4FF0E022106900F0EC
:102BD00001021AB100F48032002AF5D04FF0E02251
:102BE000126922F001024FF0E0231A6170470000E1
:102BF00010B50A20FFF75EFF0821304800F016FDEF
:102C0000002856D12E48007830B1022813D003286E
:102C100036D005284CD142E02A480078401C29498A
:102C2000087008460078032190FBF1F201FB1200C6
:102C3000244908703CE024480078012802D002288A
:102C40001CD10DE021480078042805DA1F480078DF
:102C5000401C1E49087002E000201C4908700DE06D
:102C60001A480078082805DA18480078401C1749E7
:102C7000087002E005201549087000BF00BF17E08A
:102C800013480078401C1249087008460078032158
:102C900090FBF1F201FB12000D49087008E00D48AD
:102CA000007808B9012000E000200A49087000BF40
:102CB00000BF082000F062FB10BD0000000C0140C6
:102CC0006C000020710000206F00002072000020C6
:102CD000730000207400002010B50A20FFF7EAFE00
:102CE0001021504800F0A2FC002872D14E48007814
:102CF00030B1012844D0022819D0032816D143E06E
:102D00004A48007818B90120474908700EE0474842
:102D10000078012803D102204349087006E04348A7
:102D20000078022802D103203F49087075E040482E
:102D30000078012802D0022820D114E03D48007814
:102D4000032805D10020384908703A49087009E085
:102D500038480078042805D102203549087005203C
:102D6000344908700AE033480078082805D101206A
:102D70002F49087000202F49087000BF00BF4CE0A9
:102D800000202949087048E02B48007820B101282C
:102D90001AD002283FD13AE02848007808B901202B
:102DA00000E00020254908700846007818B132205C
:102DB0002349087002E0002021490870204801786A
:102DC00020A003F065FF26E02048007810B901201C
:102DD00001E023E000201D4908700846007840B15A
:102DE00032201B490870084601781AA003F050FFF2
:102DF00007E00020164908700846017815A003F086
:102E000047FF1348017813A003F042FF03E00020BE
:102E10000549087000BF00BF00BF00BF102000F0D0
:102E2000ADFA10BD000C01406C00002071000020C4
:102E30006F00002072000020730000200E000020B0
:102E40007F00002057415445520000000D00002033
:102E50007E00002046414E0010B50A20FFF72AFEF2
:102E60002021F94800F0E2FB002874D1F7480078EF
:102E7000032811D1F648007801280DD1F5480078D3
:102E8000632804DAF3480078401CF2490870F148DE
:102E90000178F1A003F0FCFEEC480078032810D183
:102EA000EB48007868B9ED480078632804DAEB480D
:102EB0000078401CE9490870E8480178E8A003F070
:102EC000E7FEE248007860B9E748007808B90120D9
:102ED00000E00020E449087008460178E3A003F010
:102EE000D7FEDA48007802284DD1E3480078082858
:102EF00048D2DFE800F0040F3C47471A2531DF488D
:102F00000078401CDD49087008460178DCA003F019
:102F1000BFFE37E0DC480078401CDB4908700846FB
:102F20000178DAA003F0B4FE2CE0DB480078401C06
:102F3000D949087008460178D8A003F0A9FE21E01D
:102F4000D8480078401CD749087008460178D6A0B8
:102F500003F09EFE16E08DE0D6480078401CD5496F
:102F6000087008460178D4A003F092FE0AE0D54824
:102F70000078401CD349087008460178D2A003F0BD
:102F800087FE00BF00BFB1480078052872D103F06A
:102F9000BDFC07286DD2DFE800F06C041E29346107
:102FA0003F00CB48007801280AD1B4480078401C83
:102FB000B249087008460178B1A003F069FE09E043
:102FC000A4480078401CA349087008460178A2A0D4
:102FD00003F05EFE4DE0AC480078401CAA49087042
:102FE00008460178A9A003F053FE42E0AA48007801
:102FF000401CA949087008460178A8A003F048FEC3
:1030000037E0A8480078401CA649087008460178B7
:10301000A5A003F03DFE2CE0AD48007801280ED1BC
:10302000A4480078632804DAA2480078401CA1492B
:103030000870A0480178A0A003F02AFE0DE08748A0
:103040000078632804DA85480078401C83490870BA
:103050008248017882A003F01BFE0AE099480078BC
:10306000401C984908700846017897A003F010FEAC
:1030700000BF00BF8021744800F0D8FA002879D141
:1030800072480078032810D17148007801280CD1CB
:103090007048007820B16F480078401E6D49087074
:1030A0006C4801786CA003F0F3FD684800780328B1
:1030B0000FD16748007860B96848007820B1674848
:1030C0000078401E654908706448017864A003F0E8
:1030D000DFFD5E48007838B97E48007808B90120E5
:1030E00000E000207B4908705848007802285FD132
:1030F0006148007808285AD2DFE800F004124B59E2
:1031000059202E3D5D48007820B15C480078401E73
:103110005A4908705948017859A003F0B9FD46E0B2
:103120005948007820B158480078401E5649087028
:103130005548017855A003F0ABFD38E056480078BB
:1031400020B155480078401E534908705248017814
:1031500052A003F09DFD2AE05248007820B151486A
:103160000078401E4F4908704E4801784EA003F089
:103170008FFD1CE066E04F48007820B14D48007894
:10318000401E4C4908704B4801784BA003F080FD6D
:103190000DE04C48007820B14A480078401E49496B
:1031A00008704848017848A003F072FD00BF00BFD6
:1031B00026480078052845D103F0A8FB072824D22B
:1031C000DFE800F0CA0424328ABB99004048007846
:1031D00001280DD12948007820B128480078401EE8
:1031E000264908702548017825A003F051FD0CE020
:1031F0001848007820B117480078401E154908701B
:103200001448017814A003F043FDA5E01E4800789F
:1032100020B11D480078401E1B4908701A480178EB
:103220001AA003F035FD97E01B48007820B11A483A
:103230000078401E184908701748017817A003F05D
:1032400027FD89E089E00000000C01406C000020AF
:10325000730000207E00002046414E007F000020C9
:1032600057415445520000007D0000206175746F85
:103270005F666C616700000072000020750000202E
:1032800074656D5F757000007700002074656D5F78
:10329000646F776E000000007600002068756D692D
:1032A0005F7570007800002068756D695F646F77E6
:1032B0006E00000079000020736F696C5F646F77A7
:1032C0006E0000007A000020736F696C5F757000FB
:1032D000740000207C0000202348007820B12248A0
:1032E0000078401E204908701F480178AFF248005E
:1032F00003F0CEFC30E01D48007801280ED11C48B8
:10330000007820B11A480078401E19490870184802
:103310000178AFF25C0003F0BBFC0DE015480078CB
:1033200020B114480078401E1249087011480178F5
:10333000AFF2D40003F0ACFC0EE00F48007820B1EF
:103340000D480078401E0C4908700B480178AFF218
:10335000880003F09DFC00BF00BF202000F00EF8A5
:10336000802000F00BF810BD7800002074000020D1
:10337000790000207F0000207A00002001490860C9
:103380007047000014040140002123498279002A7B
:103390003AD00A46126803689A430B461A600A1D1F
:1033A000126803689A430B1D1A60027911440A6877
:1033B00003681A430A60184A0832126803689A437D
:1033C000154B08331A601A1D126803689A43124B92
:1033D0000C331A604279102A0ED11A1F1268036842
:1033E0001A430D4B08331A601A1D126803681A43FA
:1033F000094B0C331A600DE00749427911440A6801
:1034000003681A430A6005E0027911440A680368F8
:103410009A430A6070470000000401400146002200
:1034200006E0087830380244491C02EB8200420072
:103430000878302802DB08783928F2DD0A20B2FB50
:10344000F0F0704730B500228B071C0F0F2303FAF2
:1034500004F20B4B8C1053F824309343084C8D101E
:1034600044F8253023468C1053F824308C07240F61
:1034700000FA04F42343024C8D1044F8253030BD8B
:10348000080001402DE9F0410246002500260020F9
:1034900000230024002791F803C00CF00F0591F8D9
:1034A00003C00CF0100CBCF1000F03D091F802C067
:1034B0004CEA050591F800C0BCF1000F31D014684A
:1034C00000202BE04FF0010C0CFA00F3B1F800C023
:1034D0000CEA03069E4220D183004FF00F0C0CFA39
:1034E00003F7BC4305FA03FC4CEA040491F803C05B
:1034F000BCF1280F06D14FF0010C0CFA00FCC2F809
:1035000014C00AE091F803C0BCF1480F05D14FF098
:10351000010C0CFA00FCC2F810C0401C0828D1D3E2
:103520001460B1F800C0BCF1FF0F34DD5468002016
:103530002EE000F1080C4FF0010808FA0CF3B1F886
:1035400000C00CEA03069E4221D183004FF00F0C0D
:103550000CFA03F7BC4305FA03FC4CEA040491F8A7
:1035600003C0BCF1280F05D100F1080C08FA0CF8D3
:10357000C2F8148091F803C0BCF1480F07D100F1E4
:10358000080C4FF0010808FA0CF8C2F81080401C33
:103590000828CED35460BDE8F0810000F0B50A469B
:1035A000002300240021002500F00046B6F1004F62
:1035B00002D11D4EF16901E01B4E7168C0F3034555
:1035C00083B200F44016B6F5401F08D121F07061B7
:1035D000154E766826F07066134F7E6012E000F498
:1035E0008016B6F5801F06D1032606FA05F4A1431E
:1035F00041F0706106E0460D360103FA06F6B1436C
:1036000041F0706122B1460D360103FA06F63143EE
:1036100000F00046B6F1004F02D1034EF16101E027
:10362000014E7160F0BD0000000001400246002024
:1036300093680B400BB1012000E00020704741610E
:103640007047016170470AB1016100E04161704754
:1036500010B504460723012221460948FEF7F8FB6E
:1036600001210748FEF755FC00BF02210448FEF780
:10367000B3FB0028F9D00248FEF7AAFB10BD0000FA
:10368000002401402DE9F04107460C4600250026A4
:1036900008E03846FFF7DCFF05440520FFF70AFA8B
:1036A000701CC6B2A642F4DBB5FBF4F080B2BDE8F4
:1036B000F081704710B54FF480510948FFF7C1FF02
:1036C0004FF400510648FFF7BCFF4FF48051044807
:1036D000FFF7B5FF4FF400510148FFF7B0FF10BDF1
:1036E000000C014010B54FF400510748FFF7A9FF47
:1036F0004FF480510448FFF7A2FF4FF48051024875
:10370000FFF79FFF10BD0000000C014010B54FF403
:1037100000510448FFF795FF4FF400510148FFF7AF
:103720008EFF10BD000C01400EB50121084600F0CF
:10373000DFFF03210120FFF785FE04210120FFF7B1
:1037400081FE05210120FFF77DFE07210120FFF703
:1037500079FE0820009000208DF804000C208DF8E0
:10376000050001208DF806006846FFF70DFE1020C9
:10377000009000208DF804000C208DF80500012039
:103780008DF806006846FFF7FFFD2020009000201E
:103790008DF804000C208DF8050001208DF806003E
:1037A0006846FFF7F1FD8020009000208DF80400AE
:1037B0000C208DF8050001208DF806006846FFF703
:1037C000E3FD17208DF8080003208DF809008DF81F
:1037D0000A0001208DF80B0002A800F00BFB0A2064
:1037E0008DF8080003208DF809008DF80A000120EB
:1037F0008DF80B0002A800F0FDFA09208DF80800F2
:1038000003208DF809008DF80A0001208DF80B00C7
:1038100002A800F0EFFA0EBD08B50121082000F063
:1038200067FF0121084600F063FF01210648FFF70A
:10383000B5FEB820ADF8000048208DF803006946B9
:103840000248FFF71FFE08BD00023000000C0140D7
:1038500008B50121042000F04BFF2120ADF8000045
:1038600003208DF8020010208DF8030069460248FD
:10387000FFF708FE08BD00000008014010B514481D
:103880001449086008460068134908601348144941
:103890000860144814490860084600681349086025
:1038A0001348144908601448144908600846006821
:1038B0001349086013481449086000F02DF80020EF
:1038C00012490870124908701249087010BD0000B2
:1038D000A80900201000002014000020DC110020A6
:1038E00018000020081300201C00002020000020E9
:1038F0003C1B002024000020681C00202800002021
:103900002C0000209C2400203000002053000020C8
:10391000520000205000002070B501207A49086054
:103920000A207A4908607A480068001D79490968C8
:103930000844801C7849096808447849086073483D
:1039400000680968441810207549087000BF2046B7
:10395000E11704EB5161C911A4EBC115E11704EBA8
:103960005161CC11002C01DD45F080056C48664AA0
:103970001268855464480068401C63490860002C44
:10398000E5DC0021664A60480068115404215E4865
:103990000068401C11544D215B480068801C115484
:1039A000512159480068C01C1154542156480068E0
:1039B000001D115454480068401D11540421524800
:1039C0000068801D1154C2214F480068C01D115469
:1039D00000214D4800680830115464214A480068AD
:1039E000093011544A490868C11700EB1161C1F34D
:1039F00007224B4B444909680A315A544449086824
:103A0000C11700EB11610912A0EB0121CAB23E49B6
:103A100009680B315A541A463B4909680C31501851
:103A20003B490A683F49FCF7CAFD3A490868C11793
:103A300000EB1161C1F30722334909680C31344BA3
:103A40001B681944364B5A5432490868C11700EBB9
:103A500011610912A0EB0121CAB22B4909680D318D
:103A60002B4B1B6819442E4B5A54274909680E31B9
:103A7000274A126811441A46881826490A682A49B2
:103A8000FCF79DFD24490868C11700EB1161C1F3E3
:103A900007221D4909680E311D4B1B6819441D4B37
:103AA0001B6819441E4B5A541B490868C11700EB88
:103AB00011610912A0EB0121CAB2134909680F3143
:103AC000134B1B681944134B1B681944144B5A546D
:103AD0000D49096810310E4A126811440D4A1268E6
:103AE00011441A4688180C490A681049FCF767FD0A
:103AF00005480068054A12681044084A126881188F
:103B0000074801F08FFA70BD4400002048000020F3
:103B100034000020380000203C0000204C00002031
:103B2000C8270020C825002048260020C8260020DD
:103B30002DE9F04FD1B0804698F8011098F80000B8
:103B400001EB0020509008F1020700208146054655
:103B50000646834601244FF0010A00BF0BF1010B1A
:103B600000BF281917F8009009F07F0000FB0A66D3
:103B70004FEACA1A641C09F080000028F1D13019FC
:103B8000054431195098401A50900124A24600264D
:103B900050980028E2D1594620A003F075FB002080
:103BA0000546064600BF00BF4C9030E000BF281914
:103BB00017F8009009F07F0000FB0A664FEACA1A66
:103BC000641C09F080000028F1D1601C2844395C95
:103BD0006019385C01EB0020801C4F904F98301A20
:103BE0004E9029194F9808444D904D98391801A8C6
:103BF0004E9AFCF7E4FC01A84E99FEF7CDFA301975
:103C000005440124A24600264C98401C4C904C9838
:103C10005845CBDB51B0BDE8F08F0000B1BEB4CE4B
:103C2000BDD3CAD5C1CB2564B8F6CDC6CBCDCAFDB0
:103C3000BEDD0D0A0000000010B5C0200449087068
:103C4000002048700221024801F0ECF910BD00008C
:103C5000C82700202DE9F047054688461646012072
:103C6000334908602846FCF78BFC801C314908600A
:103C700031480660084600682F490968441830201A
:103C80002E49087000BF2046E11704EB5161C911AD
:103C9000A4EBC117E11704EB5161CC11002C01DD3D
:103CA00047F080072548224A126887542048006858
:103CB000401C1F490860002CE5DC2846FCF760FC2E
:103CC000C0F307211D4A1A48006811542846FCF722
:103CD00057FCC1B2194A16480068401C11542846C6
:103CE000FCF74EFC8146154A11490968891C501899
:103CF0004A462946FCF763FC2846FCF741FC0C4980
:103D00000968891C08440D4900EB01093246414607
:103D10004846FCF754FC06480068064A12681044FE
:103D2000054A12688118054801F07CF9BDE8F08762
:103D300044000020480000204C000020C82700203C
:103D400070B504460D4602201F4908601F490860EF
:103D50002046FCF715FCC01C1D49086082201D4947
:103D600008701A4800781A490978084419494870B7
:103D7000002088700120C8702046FCF701FC000A72
:103D8000144908712046FCF7FBFB12494871204694
:103D9000FCF7F6FB0646324621460E48801DFCF72E
:103DA0000EFC2046FCF7ECFB801D0A490D5406482A
:103DB0000068064A12681044054A126881180548CE
:103DC00001F030F970BD00004400002048000020E0
:103DD0004C000020C8270020704710B50446002181
:103DE000204605F0B5FD01D8204610BD84F0004006
:103DF000FBE7704770B5002100230F22C47804B39D
:103E0000154C246804F4E064C4F5E064210AC1F1AF
:103E10000403CA40447804FA03F18478144021432F
:103E200009010E4C0678A155047804F01F05012401
:103E3000AC4005786D11AD0005F1E025C5F80041F5
:103E400009E0047804F01F050124AC40044D067815
:103E5000761145F8264070BD0CED00E000E400E06E
:103E600080E100E002490143024A1160704700000E
:103E70000000FA050CED00E070B500240CE0002510
:103E800006E00020074901EBC5010855681CC5B2D2
:103E9000802DF6DB601CC4B2082CF0DB00F0E0F8EB
:103EA00070BD00002629002070B50B46CE1701EB2F
:103EB0005676C6F3C702CE1701EB5676F610A1EB85
:103EC000C606F4B20123A340DDB20E4B03EBC003E0
:103ED0009B5CDB430B4E06EBC006B354094B03EB74
:103EE000C0039B5C2B43074E06EBC006B354054B47
:103EF00003EBC0039B5CDB43024E06EBC006B354EE
:103F000070BD00002629002070B50A46CE1701EBCF
:103F10005676C6F3C703CE1701EB5676F610A1EB23
:103F2000C606F4B20122A240D5B2054A02EBC00295
:103F3000D25C2A43024E06EBC006F25470BD00006C
:103F40002629002008B50121082000F0D1FB4FF4FC
:103F50004050ADF8000010208DF8030003208DF8CC
:103F6000020069463D48FFF78DFA4FF440513B4847
:103F7000FFF767FB0021AE2000F075FA002108462C
:103F800000F071FA0021102000F06DFA00214020AD
:103F900000F069FA0021812000F065FA0021CF20AD
:103FA00000F061FA0021A12000F05DFA0021C82094
:103FB00000F059FA0021A62000F055FA0021A820AF
:103FC00000F051FA00213F2000F04DFA0021D320EB
:103FD00000F049FA0021084600F045FA0021D520FA
:103FE00000F041FA0021802000F03DFA0021D920A4
:103FF00000F039FA0021F12000F035FA0021DA2032
:1040000000F031FA0021122000F02DFA0021DB200F
:1040100000F029FA0021402000F025FA002120209C
:1040200000F021FA0021022000F01DFA00218D206D
:1040300000F019FA0021142000F015FA0021A42044
:1040400000F011FA0021A62000F00DFA0021AF20A7
:1040500000F009FAFFF710FF08BD0000000C014056
:1040600070B500241CE004F1B001C8B2002100F0DA
:10407000FAF90021084600F0F6F90021102000F0BE
:10408000F2F9002508E0084901EBC501085D0121AE
:1040900000F0E9F9681CC5B2802DF4DB601CC4B2E5
:1040A000082CE0DB70BD0000262900202DE9FF4F21
:1040B00081B081460E461C4600962046E31704EB6D
:1040C0005373DB1021464FEAE47C04EB5C7C4FEA3F
:1040D000EC0CA4EBCC0CBCF1000F02D04FF0010CA7
:1040E00001E04FF0000C6344224604EBD27C4FEA1F
:1040F0006C0C03FB0CF303F0FF0B03982038C7B2E2
:10410000002556E00C2C07D107EB47002B4901EBAB
:10411000800010F8058014E0102C05D1284800EB31
:10412000071010F805800CE0182C07D107EBC7002A
:10413000244901EB800010F8058002E005B0BDE8DD
:10414000F08F4FF0000A2EE00E9860B108F080006A
:1041500020B131464846FFF7D7FE10E031464846C9
:10416000FFF7A2FE0BE008F0800020B13146484680
:10417000FFF79AFE03E031464846FFF7C5FE4FEAD7
:1041800048604FEA1068701CC6B20098301AA0420E
:1041900005D1009E09F1010000F0FF0906E00AF1D7
:1041A000010000F0FF0ABAF1080FCDDB00BF681C68
:1041B000C5B25D45A6DB00BFC0E70000BA9A0008A3
:1041C0002E9F00081EA500082DE9FF4F87B004466A
:1041D00090461E46149D4FF0000B4046FFF7FDFD34
:1041E0008146032E05D1484605F04AFA642190FB2A
:1041F000F1FB484605F044FA0A2190FBF1F090FBF0
:10420000F1F201FB120707EB8701480005F074FA91
:10421000642103900BFB01F005F06EFA4946019012
:1042200005F0C7FB0290039905F0CEFB049005F062
:1042300027FA8246484605F023FA019005F05CFA19
:104240004946029005F0B5FB5549039005F0B4FAD4
:10425000049005F015FA0690484605F011FA019011
:1042600005F04AFA4946029005F0A3FB4D49039038
:1042700005F0A2FA049005F003FA0A2190FBF1F28E
:1042800001FB12000590012E22D101233A46009530
:104290002046089900F088F804F10801C8B201230B
:1042A00052460095089900F07FF8012004F11001B2
:1042B0000090C8B22B462E220899FFF7F7FE04F1B2
:1042C0001801C8B201230095069A089900F06CF80D
:1042D000022E2BD101233A4600952046089900F082
:1042E00063F804F10801C8B2012352460095089909
:1042F00000F05AF8012004F110010090C8B22B46DA
:104300002E220899FFF7D2FE04F11801C8B201234A
:104310000095069A089900F047F804F12001C8B208
:1043200001230095059A089900F03EF8032E34D138
:1043300001235A4600952046089900F035F804F10B
:104340000801C8B201233A460095089900F02CF8FC
:1043500004F11001C8B2012352460095089900F0FB
:1043600023F8012004F118010090C8B22B462E2238
:104370000899FFF79BFE04F12001C8B201230095C4
:10438000069A089900F010F804F12801C8B2012338
:104390000095059A089900F007F80BB0BDE8F08F7A
:1043A000000020410000C8422DE9F84F07468A4628
:1043B00090461D460A9C00262EE00A20B8FBF0F12C
:1043C00000FB1189B8FBF0F8B9F1000F10D1012002
:1043D000A34604EBDB714A10A91B491E02FB0171C5
:1043E0000090C8B2234630225146FFF75FFE11E02D
:1043F0000120A34604EBDB714B10A91B491E03FBF4
:1044000001710090C8B209F13001CAB22346514689
:10441000FFF74CFE701CC6B2AE42CEDBBDE8F88F93
:10442000F8B506460F4614461D4615E001200090DB
:1044300022782B4639463046FFF738FE284605EBF2
:10444000D07106EB6101CEB2C5F18000B04202DA54
:104450000026B81CC7B2641C2078202802DB207814
:104460007E28E3DDF8BD70B505460C46FFF722F95E
:10447000782000F0C9F9FFF749F91CB1402000F09D
:10448000C3F902E0002000F0BFF9FFF73FF928462A
:1044900000F0BAF9FFF73AF9FFF724F970BD000010
:1044A0002DE9FF4F82B005460F4690460024A146F5
:1044B0000026A2460095BB462720019000BF5DE084
:1044C000C4EBC40000EB80002F49085C98F8001092
:1044D000884251D1C4EBC40000EB80002A49084453
:1044E000407898F80110884246D14FF0000A40E029
:1044F000C4EBC40000EB800023490844C01C10F842
:104500000A604FF0000921E0059860B106F0010053
:1045100020B139462846FFF7F7FC10E03946284617
:10452000FFF7C2FC0BE006F0010020B13946284637
:10453000FFF7BAFC03E039462846FFF7E5FC7610A2
:10454000781CC7B209F1010000F0FF09B9F1080FAA
:10455000DADB681CC5B20098281A102804D1009D27
:104560000BF1080000F0FF0B5F460AF1010000F0BC
:10457000FF0ABAF1200FBBDB601CC4B20198844271
:104580009EDB06B0BDE8F08F52C5000878B5054641
:104590000E46144619E020787F280ADD01232246C2
:1045A00031462846FFF77CFFA41C05F11000C5B278
:1045B0000BE0012000902278102331462846FFF7B7
:1045C00075FD641C05F10800C5B220780028E2D111
:1045D00078BD78B505460E46144619E020787F2848
:1045E0000ADD0023224631462846FFF759FFA41C66
:1045F00005F11000C5B20BE00020009022781023D6
:1046000031462846FFF752FD641C05F10800C5B28B
:1046100020780028E2D178BD10B50F4800780F4906
:104620000978884208D00C4800780C4908700A487C
:1046300001780BA002F02CFB0A4800780A4909789F
:10464000884208D007480078074908700548017873
:1046500006A002F01DFB10BD7E0000208900002096
:1046600046414E007F0000208A00002057415445FB
:10467000520000007047000001460020034A5068C5
:1046800020F4404008435060704700000010024092
:1046900029B1064A52690243044B5A6104E0034AB5
:1046A00052698243014B5A6170470000001002407A
:1046B00029B1064AD2690243044BDA6104E0034A95
:1046C000D2698243014BDA6170470000001002405A
:1046D00029B1064A12690243044B1A6104E0034AF5
:1046E00012698243014B1A617047000000100240BA
:1046F00029B1064A92690243044B9A6104E0034AD5
:1047000092698243014B9A61704700000010024099
:1047100029B1064AD2680243044BDA6004E0034A36
:10472000D2688243014BDA607047000000100240FB
:1047300030B500210022002400232D4D6D6805F0C6
:104740000C0121B1042905D0082923D105E0294D08
:10475000056022E0274D05601FE0254D6D6805F4DA
:104760007012234D6D6805F48034022505EB9242EA
:104770001CB9214D554305600BE01D4D6D6805F4D6
:1047800000351DB11C4D5543056002E0194D5543E0
:10479000056002E0174D056000BF00BF144D6D6855
:1047A00005F0F0010909154D6B5C0568DD404560B9
:1047B0000F4D6D6805F4E061090A104D6B5C4568AA
:1047C000DD4085600A4D6D6805F46051C90A0B4DE6
:1047D0006B5C4568DD40C560054D6D6805F4404182
:1047E000890B074D6B5CC568B5FBF3F5056130BD02
:1047F0000010024000127A0000093D0094000020E1
:10480000A40000207047000070B50446002520E099
:104810004FF400511048FEF712FF04F0800028B159
:104820004FF480510C48FEF70CFF04E04FF4805128
:104830000948FEF704FF4FF400510748FEF701FF57
:104840004FF400510448FEF7FAFE6006040E681C9F
:10485000C5B2082DDCDB70BD000C014010B500F0C6
:1048600001F810BD0CB5002001900090334800689D
:1048700040F480303149086000BF3048006800F4DF
:10488000003000900198401C0190009818B90198E0
:10489000B0F5A06FF1D12948006800F4003010B1E4
:1048A0000120009001E0002000900098012843D1F1
:1048B0002348006840F0100021490860084600685D
:1048C00020F0030008600846006840F0020008601D
:1048D0001A484068194948600846406848600846D8
:1048E000406840F4806048600846406820F47C10CE
:1048F00048600846406840F4E81048600846006890
:1049000040F08070086000BF0C48006800F0007044
:104910000028F9D00948406820F0030007494860A2
:104920000846406840F00200486000BF0348406805
:1049300000F00C000828F9D10CBD00000010024066
:1049400000200240042808D14FF0E021096941F01D
:1049500004014FF0E022116107E04FF0E021096906
:1049600021F004014FF0E022116170477047000010
:1049700010B51348006840F001001149086008466E
:104980004068104908400E494860084600680E49D2
:1049900008400B4908600846006820F48020086041
:1049A0000846406820F4FE0048604FF41F0088600D
:1049B000FFF754FF4FF000600449086010BD00008D
:1049C000001002400000FFF8FFFFF6FE08ED00E0D7
:1049D00010B50121880700F057FA58B3164800684F
:1049E000401C15490860154800780A2190FBF1F039
:1049F00011490968884203D200201149086002E089
:104A000001200F4908600C4800680A2802D90020DC
:104A1000094908600B480068401C0A4908600846BC
:104A20000068B0F57A7F01D900200860012188076D
:104A300000F026F910BD0000900000207E0000204C
:104A4000800121428C0000201FB54FF4A060FFF7C9
:104A500009FA01210220FFF72BFE184800F020F987
:104A600044F61F60ADF8080041F61F40ADF80400A1
:104A70000020ADF80600ADF80A0001A90F4800F0CB
:104A80007FFA01210D4800F0FBF8012211460B4886
:104A900000F00BFA0121094800F0F5F81D208DF80F
:104AA000000001208DF8010000208DF80200012097
:104AB0008DF803006846FFF79DF91FBD0004004014
:104AC0001FB54FF4A060FFF7CDF901210220FFF7D9
:104AD000EFFD184800F0E4F84EF65F20ADF808004E
:104AE00048F69F40ADF804000020ADF80600ADF890
:104AF0000A0001A90F4800F043FA01210D4800F017
:104B0000BFF8012211460B4800F0CFF901210948F6
:104B100000F0B9F81D208DF8000002208DF801008A
:104B200001208DF802008DF803006846FFF762F956
:104B30001FBD00000004004010B50121184800F01E
:104B4000A3F958B31748007806281DD2DFE800F013
:104B50000306090C0F14FFF76FF815E0FFF76CF868
:104B600012E0FFF769F80FE0FFF766F80CE0FFF7D7
:104B70006BFFFFF761F807E000200B490870002188
:104B8000074800F080F800BF00BF06480078401CCE
:104B9000044908700121024800F072F810BD0000BD
:104BA00000040040500000205100002008B5012101
:104BB0000420FFF79DFD0220ADF8000018208DF8BD
:104BC000030003208DF8020069460248FEF75AFCF4
:104BD00008BD00000008014010B5FFF7E7FF00F036
:104BE00001F810BD00B589B001210846FFF760FD4E
:104BF0006320ADF80C0041F61F40ADF8080000201E
:104C0000ADF80E00ADF80A008DF8100002A94FF0C3
:104C1000804000F0B5F96020ADF814000120ADF837
:104C200016000020ADF81C000120ADF81600002091
:104C3000ADF81A0005A94FF0804000F03FF90821B7
:104C4000C80600F08DF90121880700F019F81C2032
:104C50008DF8040002208DF8050001208DF8060073
:104C60008DF8070001A8FFF7C5F80121880700F0BB
:104C70000AF801221146900700F017F909B000BDAB
:104C8000CA430282704721B1028842F001020280C9
:104C900004E002884FF6FE731A400280704700005D
:104CA00010B504466848844208D10121C014FFF7BA
:104CB0002FFD0021E014FFF72BFDC4E0B4F1804F7D
:104CC00008D101210846FFF703FD00210120FFF76D
:104CD000FFFCB8E05D48844208D101210220FFF7C3
:104CE000F7FC00210220FFF7F3FCACE058488442B7
:104CF00008D101210420FFF7EBFC00210420FFF77D
:104D0000E7FCA0E05348844208D101210820FFF7C6
:104D1000DFFC00210820FFF7DBFC94E04E488442D2
:104D200008D101211020FFF7D3FC00211020FFF74C
:104D3000CFFC88E04948844208D101212020FFF7B8
:104D4000C7FC00212020FFF7C3FC7CE044488442DC
:104D500008D101214014FFF7DBFC00216014FFF7AC
:104D6000D7FC70E03F48844209D10121C804FFF715
:104D7000CFFC00214FF40020FFF7CAFC63E03A4863
:104D8000844209D101210805FFF7C2FC00214FF43C
:104D90008010FFF7BDFC56E03448844209D1012160
:104DA0004805FFF7B5FC00214FF40010FFF7B0FCF9
:104DB00049E02F48844208D101214020FFF788FCB8
:104DC00000214020FFF784FC3DE02A48844208D1BE
:104DD00001218020FFF77CFC00218020FFF778FC78
:104DE00031E02548844208D101218015FFF770FC8D
:104DF0000021A015FFF76CFC25E02048844209D172
:104E000001210804FFF784FC00214FF48030FFF7F4
:104E10007FFC18E01A48844209D101214804FFF7B9
:104E200077FC00214FF40030FFF772FC0BE01548CF
:104E3000844208D101218804FFF76AFC00214FF465
:104E40008020FFF765FC10BD002C014000040040ED
:104E500000080040000C004000100040001400401A
:104E600000340140004C014000500140005401401A
:104E700000180040001C004000200040004001409D
:104E8000004401400048014030B5024600200023A4
:104E90000024158A05EA0103958905EA010413B186
:104EA0000CB1012000E0002030BD1AB183890B4312
:104EB000838102E083898B438381704770B500242E
:104EC00000220023058C4FF6EF7635400584028CD6
:104ED0008388048B48F6FF752C404FF6FF452C4025
:104EE0000D884FF6FF7606EA05252C434FF6DF7551
:104EF0002A400D8906EA05152A434D8806EA05155C
:104F00002A43154DA84202D0144DA8421DD14FF698
:104F10007F752A404D894FF6FF7606EA05152A432C
:104F20004FF6BF752A408D8806EA05152A434FF6CD
:104F3000FF352B404FF2FF752B408D8906EA850522
:104F40002B43CD8906EA85052B4383800483CD88D6
:104F50000587028470BD0000002C01400034014030
:104F60000A460021018B4FF2FF7319404FF6FF7381
:104F700003EA022319430183704701877047000049
:104F8000002202881D4B98420ED01D4B98420BD038
:104F9000B0F1804F08D01B4B984205D01A4B984275
:104FA00002D01A4B984204D14FF68F731A404B88A7
:104FB0001A43174B984207D0164B984204D04FF62D
:104FC000FF431A40CB881A4302808B8883850B8865
:104FD00003850A4B98420BD0094B984208D00E4BE0
:104FE000984205D00D4B984202D00D4B984201D10A
:104FF0000B7A03860123838270470000002C014056
:10500000003401400004004000080040000C004053
:1050100000100040001400400040014000440140E6
:105020000048014070B505460C4622462946134803
:105030000068801CFBF7C3FA2046E11704EB1161FE
:10504000090A0E4A12681170E11704EB1161091286
:10505000A4EB0121094A126851700848006800F564
:105060009670064908600846006805490968884244
:1050700002D104480149086070BD00001C000020F6
:10508000240000200813002010B540F225513248BA
:1050900000F0DEF890B13148007878B92E48001D54
:1050A000008858B12C48001D00882D492D4A1268EF
:1050B00088542C480068401C2A49086040F224416A
:1050C000254800F0C5F8002844D02448007801287D
:1050D00040D121480088234908601F48001D0088EE
:1050E000086000212048FDF743FC1F48FDF74CFCF9
:1050F000C0F580601B4908600846194902681B48D2
:105100000068801CFBF75BFA16480088000A174904
:1051100009680870134800781449096848701348F2
:10512000006800F59670114908600846006810494B
:105130000968884202D10F480C49086000200949DB
:1051400008604FF4806008496C39086701210648FF
:10515000FDF70EFC10BD000000440040510000208F
:10516000A8010020080000206C0002401000002070
:1051700018000020A809002001F40072B2F5007F99
:1051800000D100BFCA430280704721B1828942F436
:105190000052828104E082894DF6FF731A408281B9
:1051A00070471AB1838A0B43838202E0838A8B4360
:1051B0008382704710B504462048844209D10121FA
:1051C0008803FFF7A5FA00214FF48040FFF7A0FA0B
:1051D00032E01B48844209D101214804FFF778FAE4
:1051E00000214FF40030FFF773FA25E015488442A0
:1051F00009D101218804FFF76BFA00214FF48020C8
:10520000FFF766FA18E01048844209D10121C8046A
:10521000FFF75EFA00214FF40020FFF759FA0BE088
:105220000A48844208D101210805FFF751FA0021FC
:105230004FF48010FFF74CFA10BD00000038014019
:105240000044004000480040004C00400050004036
:1052500070B50246002400230025002040F66A169F
:10526000B14200D100BFC1F3421501F01F03012676
:1052700006FA03F3012D02D19689334006E0022D90
:1052800002D1168A334001E0968A33400C1201267F
:1052900006FA04F41688344013B10CB1012000E082
:1052A000002070BDF0B50346002400260025002034
:1052B00040F66A17B94200D100BF1846C1F3421444
:1052C00001F01F06012707FA06F5012C01D10C3069
:1052D00004E0022C01D1103000E014301AB107684C
:1052E0002F43076002E00768AF430760F0BD00008E
:1052F0002DE9F04786B005460E460024A24600BFC1
:10530000A1460027B08900B100BF2F462C8A4CF679
:10531000FF700440F08804432C82AC894EF6F310F1
:105320000440B08831890843718908430443AC8143
:10533000AC8A4FF6FF400440B0890443AC8201A818
:10534000FFF7F6F91F48874202D1DDF810A001E00F
:10535000DDF80CA0A88900F4004040B10AEBCA00B7
:1053600000EB0A1031684900B0FBF1F807E00AEBE6
:10537000CA0000EB0A1031688900B0FBF1F8642024
:10538000B8FBF0F004012009642101FB1089A88911
:1053900000F4004040B1322000EBC900B0FBF1F056
:1053A00000F00700044308E0322000EB09106421FC
:1053B000B0FBF1F000F00F0004432C8106B0BDE813
:1053C000F0870000003801407047000010B586B03B
:1053D000044601218803FFF78BF901210420FFF720
:1053E00087F94FF40070ADF8140003208DF8160013
:1053F00018208DF8170005A91248FEF743F84FF45E
:105400008060ADF8140004208DF8170005A90D4840
:10541000FEF738F801940020ADF80800ADF80A0056
:10542000ADF80C00ADF810000820ADF80E0001A991
:105430000548FFF75DFF01210348FFF7A6FE06B010
:1054400010BD0000000801400038014000B58DB0DB
:1054500001210846FFF71CF92C4802902C480390C4
:10546000002004904FF4806005900020069080207A
:1054700007900020089009900A904FF400500B907C
:1054800000200C9002A92348FDF7A1FA0121214830
:10549000FDF76EFA1D4802901F480068801C0390BB
:1054A000102004904FF49670059000200690802004
:1054B00007900020089009900A904FF480500B90BC
:1054C00000200C9002A913481430FDF780FA002147
:1054D00010481430FDF74CFA4FF00070FDF73AFA1F
:1054E000012202210B481430FDF768FA11208DF8D3
:1054F000040000208DF805008DF8060001208DF8CD
:10550000070001A8FEF776FC0DB000BD0444004082
:10551000A80100206C0002402000002010B586B0D9
:1055200004464FF4A060FEF79DFC2E48FFF742FEB4
:1055300001214804FFF7BCF801210420FFF7D8F847
:105540002848FFF737FE0420ADF8140003208DF83B
:10555000160018208DF8170005A92348FDF792FFC3
:105560000820ADF8140004208DF8170005A91E4886
:10557000FDF788FF01940020ADF80800ADF80A009F
:10558000ADF80C00ADF810000C20ADF80E0001A92C
:105590001448FFF7ADFE012240F224411148FFF705
:1055A00081FE26208DF8000000208DF801008DF886
:1055B000020001208DF803006846FEF71BFC012263
:1055C00040210848FFF7EDFD012280210548FFF743
:1055D000E8FDFFF73BFF01210248FFF7D6FD06B0CB
:1055E00010BD0000004400400008014010B586B026
:1055F00004464FF4A060FEF735FC2A48FFF7DAFDB9
:1056000001214804FFF754F801210420FFF770F846
:105610002448FFF7CFFD0420ADF8140003208DF8D7
:10562000160018208DF8170005A91F48FDF72AFF5E
:105630000820ADF8140004208DF8170005A91A48B9
:10564000FDF720FF01940020ADF80800ADF80A0036
:10565000ADF80C00ADF810000C20ADF80E0001A95B
:105660001048FFF745FE20210E48FFF785FD012277
:1056700040F225510B48FFF715FE26208DF800005B
:1056800000208DF801008DF8020001208DF8030044
:105690006846FEF7AFFB01210248FFF776FD06B032
:1056A00010BD0000004400400008014010B5FEF7A6
:1056B000E3FB64A001F0E8FD322000F0E9FB20B13B
:1056C00064A001F0E1FD012010BD68A001F0DCFD47
:1056D00069A001F0D9FD32216CA000F04BFC20B193
:1056E0006DA001F0D1FD0220EEE772A001F0CCFD2B
:1056F0007548007800281FD174A001F0C5FD322143
:1057000077A000F037FC20B179A001F0BDFD0320A7
:10571000DAE77FA001F0B8FD82A001F0B5FD1E2000
:1057200000F02CFB20B184A001F0AEFD0420CBE7FB
:1057300088A001F0A9FD54E020218B48FDF776FFF9
:1057400000283FD189A001F09FFD32218CA000F0FC
:1057500011FC20B18EA001F097FD0320B4E794A0C6
:1057600001F092FD97A001F08FFD32219BA000F087
:1057700001FC20B19DA001F087FD0420A4E7A3A0B7
:1057800001F082FDA7A001F07FFD3C2000F02CFC81
:1057900020B1AAA001F078FD052095E7AEA001F0A8
:1057A00073FDB1A001F070FD3221B5A000F0E2FB65
:1057B00020B1B7A001F068FD062085E7BCA001F08C
:1057C00063FD0EE0C0A001F05FFD1E2000F042FC72
:1057D00020B159A001F058FD072075E75DA001F048
:1057E00053FDBEA001F050FD3221C0A000F0C2FB6D
:1057F00020B1C2A001F048FD082065E7C6A001F075
:1058000043FDC9A001F040FD3221CCA000F0B2FB65
:1058100020B1CDA001F038FD092055E7D2A001F05C
:1058200033FDD6A001F030FD642000F0C9F920B1AD
:10583000D7A001F029FD0A2046E7DCA001F024FDF5
:10584000002041E7D7BCB1B8B8B4CEBBC4A3BFE910
:105850000D0A0000B8B4CEBBCAA7B0DCA3ACD7BC5D
:10586000B1B8D6D8C6F40D0A00000000B8B4CEBB5B
:10587000B3C9B9A60D0A0000D7BCB1B8C9E8D6C3F0
:10588000535441C4A3CABD0D0A00000041542B4328
:10589000574D4F44453D3100C9E8D6C3535441C428
:1058A000A3CABDCAA7B0DCA3ACD7BCB1B8D6D8C612
:1058B000F40D0A00C9E8D6C3535441C4A3CABDB30A
:1058C000C9B9A60D0A00000054000020D7BCB1B829
:1058D000C8A1CFFBD7D4B6AFC1ACBDD30D0A000071
:1058E00041542B43574155544F434F4E4E3D30008A
:1058F000C8A1CFFBD7D4B6AFC1ACBDD3CAA7B0DC6B
:10590000A3ACD7BCB1B8D6D8C6F40D0A00000000CD
:10591000C8A1CFFBD7D4B6AFC1ACBDD3B3C9B9A66C
:105920000D0A0000D7BCB1B8C1ACBDD3C2B7D3C952
:10593000C6F70D0A00000000C1ACBDD3C2B7D3C981
:10594000C6F7CAA7B0DCA3ACD7BCB1B8D6D8C6F4EA
:105950000D0A0000C1ACBDD3C2B7D3C9C6F7B3C9E5
:10596000B9A60D0A00000000000C0140D7BCB1B878
:10597000C9E8D6C3D7D4B6AFC1ACBDD30D0A0000B9
:1059800041542B43574155544F434F4E4E3D3100E8
:10599000C9E8D6C3D7D4B6AFC1ACBDD3CAA7B0DCB3
:1059A000A3ACD7BCB1B8D6D8C6F40D0A000000002D
:1059B000C9E8D6C3D7D4B6AFC1ACBDD3B3C9B9A6B5
:1059C0000D0A0000D7BCB1B8BFAAC6F4536D61720E
:1059D00074636F6E6669670D0A00000041542B43C3
:1059E000575354415254534D41525400BFAAC6F428
:1059F000536D617274636F6E666967CAA7B0DCA38A
:105A0000ACD7BCB1B8D6D8C6F40D0A00BFAAC6F44C
:105A1000536D617274636F6E666967B3C9B9A60D21
:105A20000A000000C7EBCAB9D3C3415050C8EDBC4F
:105A3000FEB4ABCAE4C3DCC2EB0D0A00B4ABCAE4EB
:105A4000C3DCC2EBCAA7B0DCA3ACD7BCB1B8D6D814
:105A5000C6F40D0A00000000B4ABCAE4C3DCC2EB1C
:105A6000B3C9B9A60D0A0000D7BCB1B8B9D8B1D531
:105A7000536D617274636F6E6669670D0A00000092
:105A800041542B435753544F50534D4152540000EF
:105A9000B9D8B1D5536D617274636F6E666967CAA8
:105AA000A7B0DCA3ACD7BCB1B8D6D8C6F40D0A00F9
:105AB000B9D8B1D5536D617274636F6E666967B39F
:105AC000C9B9A60D0A000000B5C8B4FDC1ACBDD36C
:105AD000C2B7D3C9C6F70D0A00000000D7BCB1B8E1
